:020000040800F2
:10000000F0580020290300089F390008FF3300083A
:100010005539000861060008F94500080000000095
:10002000000000000000000000000000690200085D
:100030009F09000800000000C5020008213C0008DC
:100040004303000843030008430300084303000878
:100050004303000843030008430300084303000868
:10006000430300084303000843030008F5070008A2
:1000700005080008150800082508000835080008CC
:1000800045080008550800084303000875060008E5
:100090006506000843030008430300084303000803
:1000A00043030008053D000843030008430300081C
:1000B0004303000843030008430300084303000808
:1000C00043030008430300084303000843030008F8
:1000D0004303000843030008614500087145000818
:1000E00043030008430300084303000843030008D8
:1000F00043030008430300084303000865080008A1
:1001000043030008430300084303000843030008B7
:10011000253E00089D3E00084303000843030008F5
:100120004303000875080008430300084303000860
:100130004303000843030008430300089506000832
:100140004303000885060008430300084303000832
:1001500043030008850800084303000881450008A0
:100160004303000843030008430300084303000857
:100170004303000843030008430300080000000095
:10018000430300084303000800F002F800F05CF8A5
:100190000AA090E8000C82448344AAF10107DA45E2
:1001A00001D100F051F8AFF2090EBAE80F0013F0D8
:1001B000010F18BFFB1A43F0010318470477000032
:1001C000247700000A444FF0000C10F8013B13F0B4
:1001D000070408BF10F8014B1D1108BF10F8015BA0
:1001E000641E05D010F8016B641E01F8016BF9D193
:1001F00013F0080F1EBF10F8014BAD1C0C1B09D1EA
:100200006D1E58BF01F801CBFAD505E014F8016B5B
:1002100001F8016B6D1EF9D59142D6D370470000ED
:100220000023002400250026103A28BF78C1FBD8FF
:10023000520728BF30C148BF0B6070471FB507F099
:100240000CFA1FBD10B510BD00F0D5F91146FFF72F
:10025000F5FF04F057FB00F0F3F903B4FFF7F2FFEA
:1002600003BC00F0F7F900002C4B19680868B0E8EF
:10027000F04F80F30988BFF36F8F4FF0000080F3D9
:10028000118870470000000008480068006880F38B
:1002900008884FF0000080F3148862B661B6BFF39F
:1002A0004F8FBFF36F8F00DF00BF00BF08ED00E08E
:1002B000DFF80C00016841F470010160704700BF75
:1002C00088ED00E0EFF30980BFF36F8F134B1A68DE
:1002D0001EF0100F08BF20ED108A20E9F04F1060CB
:1002E00009B44FF0500080F31188BFF34F8FBFF374
:1002F0006F8F05F075FD4FF0000080F3118809BC89
:1003000019680868B0E8F04F1EF0100F08BFB0EC95
:10031000108A80F30988BFF36F8F70471C0000209C
:10032000EFF30580704700000948804709480047FF
:10033000FEE7FEE7FEE7FEE7FEE7FEE7FEE7FEE795
:10034000FEE7FEE704480549054A064B70470000F2
:10035000F13C000889010008F0520020F05800200C
:10036000F0540020F054002053EA020C00F06980A1
:100370002DE9F04B4FF00006002B1FBFB3FA83F5B9
:1003800003FA05F424FA05F65E4012BF1643B2FAEA
:1003900082F502FA05F4C5F120051EBF22FA05FC1C
:1003A00044EA0C04203556EA044C4FEA144418BFC2
:1003B000641C4FF000084FF00009904271EB030CF1
:1003C00039D3002919BFB1FA81F701FA07F6B0FA5B
:1003D00080F700FA07F6C7F120071EBF20FA07FCD6
:1003E00046EA0C062037B6FBF4FCA7EB0507103FE6
:1003F00007F01F0BCBF120060CFA0BFB2CFA06F6CC
:1004000044BFB3460026202FA4BF5E464FF0000B2A
:100410005BEA060C08BF4FF0010B19EB0B09ABFBB5
:10042000027C48EB0608C01B06FB02CC0BFB03CC8E
:1004300071EB0C01C1E70B46024641464846BDE858
:10044000F08B13B54FF000004FF00001AFF30080C8
:10045000BDE81C407047032A40F2308010F0030CC6
:1004600000F0158011F8013BBCF1020F624498BF07
:1004700011F801CB00F8013B38BF11F8013BA2F1A4
:10048000040298BF00F801CB38BF00F8013B11F01F
:10049000030300F02580083AC0F0088051F8043BBF
:1004A000083A51F804CBA0E80810F5E7121D5CBF2C
:1004B00051F8043B40F8043BAFF30080D20724BF5F
:1004C00011F8013B11F801CB48BF11F8012B24BFF3
:1004D00000F8013B00F801CB48BF00F8012B704742
:1004E00010B5203AC0F00B80B1E81850203AA0E8CF
:1004F0001850B1E81850A0E81850BFF4F5AF5FEA03
:10050000027C24BFB1E81850A0E8185044BF18C9B5
:1005100018C0BDE810405FEA827C24BF51F8043B5C
:1005200040F8043B08BF7047D20728BF31F8023BB0
:1005300048BF11F8012B28BF20F8023B48BF00F844
:10054000012B704702F0FF0343EA032242EA024212
:1005500000F02CB84FF0000200B5134694469646C2
:10056000203922BFA0E80C50A0E80C50B1F12001C6
:10057000BFF4F7AF090728BFA0E80C5048BF0CC074
:100580005DF804EB890028BF40F8042B08BF7047D2
:1005900048BF20F8022B11F0804F18BF00F8012B44
:1005A00070477047704770474FF000020429C0F051
:1005B000128010F0030C3FF4CFAFCCF1040CBCF16F
:1005C000020F18BF00F8012BA8BF20F8022BA1EBE7
:1005D0000C01FFF7C1BF5FEAC17C24BF00F8012B0B
:1005E00000F8012B48BF00F8012B70470048704706
:1005F0009052002070477546FFF7F8FFAE460500A1
:100600006946534620F00700854618B020B5FFF72D
:1006100099FEBDE820404FF000064FF000074FF074
:1006200000084FF0000B21F00701AC46ACE8C00910
:10063000ACE8C009ACE8C009ACE8C0098D46704719
:1006400010B50446AFF300802046BDE81040FFF728
:1006500004BE000001491820ABBEFEE726000200E0
:1006600000BFFEE710B5024800F04DFC10BD0000D1
:100670007002002010B5024800F045FC10BD0000DB
:100680007002002010B5024800F03DFC10BD0000D3
:100690009802002010B5024800F035FC10BD0000A3
:1006A0009802002030B587B004460D461C216846EC
:1006B000FFF750FF094A2068904201D0012000E076
:1006C000002001462B466A46204600F052FB029865
:1006D00010B9009807B030BD0198FBE700640040F6
:1006E00010B58AB004460020069001200790002033
:1006F00000900190029003900E2009900B49206811
:10070000884202D10020059004900949206888425F
:1007100003D10E2005900120049001200890694625
:10072000204600F095FA0AB010BD000000640040B9
:1007300000680040F0EE402A9FED2B3AB4EEC32A49
:10074000F1EE10FA03D29FED283AB0EE432A9FED66
:10075000273AF4EEC31AF1EE10FA03DD9FED233AC7
:10076000F0EE431A9FED223AF4EEC31AF1EE10FABE
:1007700003D29FED1F3AF0EE431AB0EE420A80ED2D
:10078000042AC0ED052A80ED061AC161012280F815
:100790002020C0ED002AC0ED010A31EE623AF0EEF1
:1007A000083A23EE233AB0EE004AF0EE613A44EE06
:1007B000203A03EEC03A60EE003A83EE234A80ED21
:1007C000024A32EEC13AF0EE003A23EE233A70EEDE
:1007D000A13A03EE803A60EE003A63EE803A83EE8F
:1007E000234A80ED034A7047CDCC4C3D48E1494255
:1007F00048E149C210B5024800F012FF10BD0000E8
:10080000E804002010B5024800F00AFF10BD000007
:100810006806002010B5024800F002FF10BD00007D
:100820002804002010B5024800F0FAFE10BD0000B8
:10083000C806002010B5024800F0F2FE10BD00000E
:100840008804002010B5024800F0EAFE10BD000048
:10085000A805002010B5024800F0E2FE10BD00001F
:100860000806002010B5024800F0DAFE10BD0000B6
:100870004805002010B5024800F0D2FE10BD00006F
:100880002807002010B5024800F0CAFE10BD000085
:10089000880700200146087810381823B0FBF3F2CF
:1008A0000848805CC865032A05D908686FF3090009
:1008B000001D886503E008686FF309008865886D8E
:1008C0007047000094760008014600208A6A8B6910
:1008D000CBB932B1012A0DD0022A03D0032A10D19C
:1008E0000EE000BFCB6A03F08073B3F1807F00D1CC
:1008F000012007E0CB6AB3F1C07F00D1012001E005
:1009000000E000BF34E08B69B3F5005F1AD132B16B
:10091000012A07D0022A03D0032A11D10AE000BF1E
:1009200001200EE0CB6A03F08073B3F1807F00D129
:10093000012006E0CB6AB3F1C07F00D1012000E0C6
:1009400000BF15E032B1012A05D0022A04D0032AE3
:100950000CD103E000BF00BF012008E0CB6A03F028
:100960008073B3F1807F00D1012000E000BF00BFA1
:10097000704730B50468246824F4802405682C602E
:10098000046863608468402C04D10468A260046831
:10099000E16003E00468A1600468E26030BD704774
:1009A00072B600BFFEE7000030B52DED088B87B0B2
:1009B00004460020029002A800900223102203A9FE
:1009C000206803F07BF80298102804D0002007B0BC
:1009D000BDEC088B30BD0E2203A9002003F075FF8B
:1009E000BDF81A10884201D00020F0E703ADA878C6
:1009F00000F00F002179884201D00020E7E7A878B5
:100A0000011126200155B5F9030000EE100AB8EED9
:100A1000C00ADFED290A80EE201A84ED061AB5F926
:100A2000050006F094FC41EC1B0B9FED240B53ECEE
:100A3000102B06F0A3FC41EC1A0B9FED220B53EC9C
:100A4000102B06F09BFC41EC190B9FED200B53EC97
:100A5000102B06F0C7FA41EC180B06F091FAE06192
:100A6000D5F8070006F073FC41EC1B0B9FED190B4A
:100A700053EC102B06F0B6FA41EC1A0B9FED0F0B5E
:100A800053EC102B06F07AFC41EC190B9FED0D0B8B
:100A900053EC102B06F072FC41EC180B06F070FAC8
:100AA0002062E87A41B224200155287B00F007013A
:100AB0002520015501208AE7000080430000000046
:100AC00000000040EA2E4454FB21094000000000D1
:100AD00000007040000000000000E04010B52DED67
:100AE0000C8B0446B0EE408AF0EE608AB0EE419A7C
:100AF000F0EE619AB0EE42AA4EF6FE60A4F8050050
:100B0000207900F00F0040F01001E17118EE100A9A
:100B100006F032FD41EC1C0B9FED3A0B53EC102B11
:100B200006F02CFC41EC1B0B06F0B4FB01B2601D7F
:100B3000218118EE900A06F01FFD41EC1D0B9FED80
:100B4000310B53EC102B06F019FC41EC1C0B9FED04
:100B50002F0B53EC102B06F045FA41EC1B0B06F063
:100B600099FB01B2601D618119EE100A06F004FDC7
:100B700041EC1D0B9FED270B53EC102B06F0FEFBF9
:100B800041EC1C0B9FED210B53EC102B06F02AFAC5
:100B900041EC1B0B06F07EFBE06019EE900A06F0BC
:100BA000EBFC41EC1C0B9FED1D0B53EC102B06F0E6
:100BB000E5FB41EC1B0B06F09DFB81B2601D218221
:100BC0001AEE100A06F0D8FC41EC1C0B9FED130B3B
:100BD00053EC102B06F0D2FB41EC1B0B06F08AFB0A
:100BE00081B2601D61820F22611D002003F06DFE45
:100BF000611DA08202231122206802F0C3FFBDEC18
:100C00000C8B10BD0000000000007040F1D4C853F0
:100C1000FB211940000000000000E040000000003F
:100C20000000944010B5024692F82030012B01D00C
:100C3000022B06D1106840690843146860610020E7
:100C400010BD506A40F4802050620120F8E7000097
:100C5000F0B504460A4694F82050012D01D0022D2B
:100C60007ED1424901F50071086840F0010008603A
:100C7000086820F47C5008600868566A40EA06203C
:100C80000860107D00F01F06012000FA06F3C86915
:100C90009843C861A1F50071D069C8B9D1F80C02B8
:100CA0009843C1F80C02908880B2968940EA0646C3
:100CB00001F51070576940F83760108880B21689C6
:100CC00040EA064601F51070576900EBC700466020
:100CD000D069012819D1D1F80C021843C1F80C02CF
:100CE000908880B2168840EA064601F51070576970
:100CF00040F83760908980B2168940EA064601F5CF
:100D00001070576900EBC7004660906928B9D1F8A8
:100D100004029843C1F8040204E0D1F80402184325
:100D2000C1F80402106928B9D1F814029843C1F837
:100D3000140204E0D1F814021843C1F81402106A36
:100D4000012804D1D1F81C021843C1F81C02D1F8C3
:100D5000000220F00100C1F800020020F0BDFFE712
:100D6000606A40F4802060620120F7E70064004080
:100D7000704770B5044694F82050012D01D0022D23
:100D80007DD151B92068C06800F0030080B9606A65
:100D900040F400106062012070BD2068006900F01E
:100DA000030028B9606A40F4001060620120F3E794
:100DB000206800F5D87000EB0110006800F0040016
:100DC0009060906840B9206800F5D87000EB011081
:100DD0000068400D106007E0206800F5D87000EB57
:100DE00001100068C0085060206800F5D87000EB62
:100DF0000110006800F00200D060206800F5D87093
:100E000000EB0110406800F00F00082802D3082012
:100E1000106108E0206800F5D87000EB0110406810
:100E200000F00F001061206800F5D87000EB011091
:100E3000406800F47F40000A9061206800F5D87097
:100E400000EB01104068000C5061206800F5D8707C
:100E500000EB011080681870206800F5D87000EB76
:100E60000110806800F47F40000A5870206800F587
:100E7000D87000EB0110806800F47F0000E03CE0D7
:100E8000000C9870206800F5D87000EB01108068A5
:100E9000000ED870206800F5D87000EB0110C06813
:100EA0001871206800F5D87000EB0110C06800F4DC
:100EB0007F40000A5871206800F5D87000EB0110DF
:100EC000C06800F47F00000C9871206800F5D870AD
:100ED00000EB0110C068000ED87131B92068C068FD
:100EE00040F020002668F06005E02068006940F0CE
:100EF00020002668306100204EE7606A40F48020C0
:100F00006062012048E72DE9F05F04460025206873
:100F100046692068D0F80490206887682068D0F877
:100F20000CA02068D0F810B02068D0F8188006F027
:100F30000100002855D007F00100C0B10120216850
:100F4000886007F0020018B1204600F0F8FA0EE0C1
:100F500007F0040010B145F4006508E007F0080050
:100F600010B145F4805502E0204600F0E7FA07F49E
:100F70008070C8B14FF480702168886007F40070F9
:100F800018B1204600F0DDFA0EE007F4806010B1E1
:100F900045F4005508E007F4006010B145F48045C1
:100FA00002E0204600F0CCFA07F48030C8B14FF4DC
:100FB00080302168886007F4003018B1204600F0C6
:100FC000C2FA0EE007F4802010B145F4004508E0B5
:100FD00007F4002010B145F4803502E0204600F00F
:100FE000B1FA06F0080038B10AF0100020B145F45B
:100FF000007510202168C86006F0040040B10AF0B6
:10100000080028B108202168C860204600F01CFABA
:1010100006F0020038B12068C06800F0030010B18B
:10102000204600F013FA06F0400038B10BF0100033
:1010300020B145F4806510202168086106F0200089
:1010400040B10BF0080028B1082021680861204653
:1010500000F014FA06F0100038B12068006900F0C2
:10106000030010B1204600F00BFA06F4003040B146
:1010700009F0100028B1102021684860204600F0D7
:101080002DFA06F4803040B109F0080028B108209C
:1010900021684860204600F057FA06F4004088B303
:1010A00009F0040078B306F4807020B108F0010064
:1010B00008B145F0010506F4007020B108F0020007
:1010C00008B145F0020506F4806020B108F0040084
:1010D00008B145F0040506F40060A0B108F0700006
:1010E00088B108F07000402817D006DC10280BD01B
:1010F00020280CD0302819D10CE0502810D06028BE
:1011000014D110E01DE019E045F008050FE045F0AE
:1011100010050CE045F0200509E045F0400506E02B
:1011200045F0800503E045F4807500E000BF00BF96
:101130002068806920F0700021688861042021689F
:1011400048602DB1606A284360622046FFF710FEB8
:10115000BDE8F09F70B504460CB9012070BD94F84D
:10116000200010B9204600F0AFF82068006840F079
:1011700001002168086000F033FD05460DE000F035
:101180002FFD401B0A2808D9606A40F400306062D5
:10119000052084F820000120E0E72068406800F086
:1011A00001000028EBD02068006820F002002168D0
:1011B000086000F015FD05460DE000F011FD401B34
:1011C0000A2808D9606A40F400306062052084F87B
:1011D00020000120C2E72068406800F002000028DB
:1011E000EBD1207E012806D12068006840F0800005
:1011F0002168086005E02068006820F08000216810
:101200000860607E012806D12068006840F0400038
:101210002168086005E02068006820F0400021682F
:101220000860A07E012806D12068006840F02000F8
:101230002168086005E02068006820F0200021682F
:101240000860E07E012806D12068006820F01000C8
:101250002168086005E02068006840F010002168FF
:101260000860207F012806D12068006840F008004F
:101270002168086005E02068006820F00800216807
:101280000860607F012806D12068006840F00400F3
:101290002168086005E02068006820F004002168EB
:1012A0000860D4E9020108432169084361690843E1
:1012B0006168491E08432168C861002060620120FE
:1012C00084F82000002049E710B586B004461421B8
:1012D00001A8FFF73FF95749206888424AD156488C
:1012E0000068401C544908600846006801280FD176
:1012F00000BF002000905148006840F000704F4946
:1013000008600846006800F00070009000BF00BF51
:1013100000BF0020009049481038006840F00200EB
:101320004649103908600846006800F00200009045
:1013300000BF00BF4FF440700190022002900020D7
:101340000390032004900920059001A93C4800F077
:1013500047FB00220521132000F000FD132000F0C0
:10136000E9FC00220521142000F0F8FC142000F014
:10137000E1FC5CE033492068884258D100BF00207E
:1013800000902E48006840F080602C4908600846B4
:10139000006800F08060009000BF00BF2648006831
:1013A000401C254908600846006801280FD100BF8D
:1013B000002000902148006840F000701F4908603C
:1013C0000846006800F00070009000BF00BF00BF3A
:1013D0000020009019481038006840F002001749BA
:1013E000103908600846006800F00200009000BF55
:1013F00000BF602001900220029000200390032093
:1014000004900920059001A90D4800F0E9FA002296
:1014100005213F2000F0A2FC3F2000F08BFC0022C1
:101420000521412000F09AFC412000F083FC06B029
:1014300010BD000000640040080000204038024059
:101440000004024000680040704700007CB504467C
:101450000849206888420BD169462046FFF722F9E7
:1014600005466B462A462146034802F075FA00BF3E
:101470007CBD000000640040B051002070470000B7
:101480007CB5044600200090019069462046FFF795
:1014900009F905466B462A460B490C4803F0AEF89D
:1014A0006B462A4608490A4803F0A8F86B462A46C4
:1014B0000549084803F0A2F86B462A460249064847
:1014C00003F09CF87CBD0000980200209C000020E6
:1014D000D80000201401002050010020704770B592
:1014E000044694F82000012822D1022084F820002C
:1014F0002068006820F001002168086000F070FB9F
:1015000005460DE000F06CFB401B0A2808D9606A14
:1015100040F400306062052084F82000012070BD96
:101520002068406800F001000028EBD16062F6E717
:10153000606A40F4002060620120F0E77047704765
:101540007047704770477047704770B50446A56D87
:1015500000F046FB064694F83500022808D08020AB
:10156000606500BF002084F8340000BF012070BD1A
:101570002068006820F01600216808602068406933
:1015800020F0800021684861206C08B9A06C28B167
:101590002068006820F00800216808602068006862
:1015A00020F001002168086010E000F019FB801BAA
:1015B00005280BD920206065032084F8350000BF82
:1015C000002084F8340000BF0320D0E720680068C2
:1015D00000F001000028E8D194F85C103F2088401A
:1015E000A860012084F8350000BF002084F8340092
:1015F00000BF00BFBBE7014691F83500022803D0C9
:101600008020486501207047052081F83500086872
:10161000006820F001000A6810600020F3E7000075
:10162000F8B50446002000908C4800684FF416512D
:10163000B0FBF1F7A56D2E6894F85C100820884087
:10164000304098B12068006800F0040070B1206854
:10165000006820F004002168086094F85C100820FD
:101660008840A860606D40F00100606594F85C10EF
:1016700001208840304068B12068406900F0800057
:1016800040B194F85C1001208840A860606D40F083
:101690000200606594F85C1004208840304068B116
:1016A0002068006800F0020040B194F85C1004204B
:1016B0008840A860606D40F00400606594F85C109C
:1016C00010208840304078B32068006800F008009F
:1016D00050B394F85C1010208840A860206800681F
:1016E00000F4802080B12068006800F4002028B950
:1016F000206CC8B12046216C884715E0A06C98B1D9
:101700002046A16C88470FE02068006800F48070D4
:1017100028B92068006820F0080021680860206C63
:1017200010B12046216C884794F85C102020884036
:101730003040002865D02068006800F010000028C4
:101740005FD094F85C1020208840A86094F83500A1
:10175000052828D12068006820F01600216808605C
:101760002068406920F0800021684861206C08B939
:10177000A06C28B12068006820F00800216808608B
:1017800094F85C103F208840A860012084F8350060
:1017900000BF002084F8340000BF206D10B1204647
:1017A000216D8847F8BD2068006800F4802080B172
:1017B0002068006800F4002028B9606C10B1204651
:1017C000616C88471DE0E06BD8B12046E16B88472B
:1017D00017E02068006800F4807068B9206800682D
:1017E00020F0100021680860012084F8350000BF57
:1017F000002084F8340000BFE06B10B12046E16B9C
:101800008847606D38B3606D00F00100F0B10520CD
:1018100084F835002068006820F001002168086025
:1018200000BF0098401C0090B84200D905E0206835
:10183000006800F001000028F3D100BF012084F807
:10184000350000BF002084F8340000BFE06C10B108
:101850002046E16C884700BFA4E700001800002084
:101860002DE9F0410446002500F0BAF9074614B905
:101870000120BDE8F081606A00B100BF022084F859
:10188000350000BF002084F8340000BF20680068E5
:1018900020F00100216808600AE000F0A1F9C01BF7
:1018A000052805D920206065032084F83500E0E78D
:1018B0002068006800F001000028EED1206805686B
:1018C00021480540D4E901010843E1680843216942
:1018D000084361690843A1690843E1690843216A33
:1018E00008430543606A042803D1D4E90B01084387
:1018F0000543206805602068456925F00705606A92
:101900000543606A04280DD1A06A0543E06A48B126
:101910002046FEF7D9FF28B140206065012084F8F9
:101920003500A6E7206845612046FEF7B3FF06466E
:1019300094F85C103F208840B06000206065012072
:1019400084F83500002094E73F8010F02DE9F0473F
:1019500004460D4616461F464FF00008D4F858902E
:1019600000BF94F83400012802D10220BDE8F087BE
:10197000012084F8340000BF94F83500012825D1F7
:10198000022084F83500002060653B463246294637
:101990002046FEF7EEFF94F85C103F208840C9F81F
:1019A00008002068006840F0160021680860206C7C
:1019B00028B12068006840F00800216808602068AD
:1019C000006840F001002168086006E000BF0020C8
:1019D00084F8340000BF4FF002084046C6E700001C
:1019E000F8B502460B460025002400200021D6E071
:1019F000012606FA01F51E6806EA0504AC4274D118
:101A00001E7906F00306012E04D01E7906F00306A7
:101A1000022E13D190684F000326BE40B0434F0002
:101A2000DE68BE4030439060506801268E40B0436F
:101A30001E79C6F300168E40304350601E7906F0C2
:101A40000306032E09D0D0684F000326BE40B043E2
:101A50004F009E68BE403043D0601E7906F00306FA
:101A6000022E13D1CF0802F1200656F827004E07A8
:101A7000F70E0F26BE40B0434F07FF0E1E69BE4053
:101A80003043CF0802F1200646F8270010684F00C7
:101A90000326BE40B0431E7906F003064F00BE4049
:101AA000304310605E6806F44036002E76D000BFEA
:101AB000002600963C4E366846F480463A4F3E601B
:101AC0003E46366806F48046009600BF00BF374E9B
:101AD0008F0856F827008E07370F0F26BE40B043F9
:101AE000334EB24202D1002624E057E0314EB242DA
:101AF00001D101261EE0304EB24201D1022619E08A
:101B00002E4EB24201D1032614E02D4EB24201D135
:101B100004260FE02B4EB24201D105260AE02A4EE0
:101B2000B24201D1062605E0284EB24201D1072675
:101B300000E008268F073F0FBE4030431B4E8F0842
:101B400046F82700224E3068A0435E6806F48016EF
:101B500006B120431E4E3060361D3068A0435E68DB
:101B600006F4001606B12043194E361D3060184E9B
:101B7000361F3068A0435E6806F4003606B1204385
:101B8000134E361F3060361F3068A0435E6806F47F
:101B9000803606B120430E4E083E3060491C1029A5
:101BA000FFF426AFF8BD0000443802400838014079
:101BB000000002400004024000080240000C024005
:101BC000001002400014024000180240001C0240B5
:101BD000083C01400AB1816101E00B048361704758
:101BE00001480068704700000C00002003480068AE
:101BF0000349097808440149086070470C00002037
:101C00001400002010B50D48006840F400700B4926
:101C100008600846006840F4806008600846006874
:101C200040F480700860032000F0D6F80F2000F028
:101C300007F800F055F8002010BD0000003C0240FD
:101C4000F0B587B004460026002700BF00200090B2
:101C50001E48006840F001001C4908600846006802
:101C600000F00100009000BF00BF01A902A800F031
:101C700089F900F0BFF946001548B6FBF0F0471EA1
:101C800014481549086040F2E7311348C1604760C5
:101C9000002101618160816100F064FC054695B915
:101CA0000D4800F093FC05466DB9192000F042F88C
:101CB000102C07D200222146192000F04FF80748C7
:101CC000046000E00125284607B0F0BD443802401A
:101CD00040420F00000001401408002010000020C6
:101CE00008B500BF002000901148006840F4804013
:101CF0000F4908600846006800F48040009000BF6B
:101D000000BF00BF00200090081F006840F0805016
:101D1000091F08600846006800F08050009000BF6E
:101D200000BF00220F21901E00F018F808BD00002F
:101D3000443802400146084600280DDB00BF00BFC2
:101D400000F01F0301229A4043099B0003F1E023A6
:101D5000C3F8002100BF00BF00BF70472DE9F05F4E
:101D600080460D461646002702F090FD074639468C
:101D70002A46334601F00700C0F1070ABAF1040F02
:101D800002D94FF0040A01E0C0F1070AD14600F180
:101D9000040ABAF1070F02D24FF0000A01E0A0F1E5
:101DA000030AD4464FF0010A0AFA09FAAAF1010A15
:101DB0000AEA020A0AFA0CFA4FF0010B0BFA0CFBC2
:101DC000ABF1010B0BEA030B4AEA0B042146404638
:101DD00002F064FDBDE8F09F00BF00F00702064B73
:101DE00019684FF6FF031940044B0B4343EA0221E5
:101DF000014B196000BF70470CED00E00000FA05D0
:101E000070B504460D460CB9012070BD58480068F5
:101E100000F00700A84209D255490D700846006835
:101E200000F00700A84201D00120EEE7207800F082
:101E3000020002281DD1207800F00400042805D1FA
:101E40004C48006840F4E0504A490860207800F0AF
:101E50000800082805D14748006840F4604045491B
:101E600008604448006820F0F000A1680843414938
:101E70000860207800F00100A8B36068012807D14D
:101E80003C4808380068C0F34040B8B90120BCE7BE
:101E90006068022802D06068032807D135480838F6
:101EA0000068C0F3406048B90120AEE73148083807
:101EB0000068C0F3400008B90120A6E72D4800687B
:101EC00020F00300616808432A490860FFF788FE94
:101ED000064609E0FFF784FE801B41F28831884204
:101EE00002D9032091E707E02248006800F00C00C7
:101EF0006168B0EB810FEDD11D48006800F007006C
:101F0000A84209D91A490D700846006800F0070078
:101F1000A84201D0012078E7207800F004000428CE
:101F200007D11448006820F4E050E16808431149E3
:101F30000860207800F00800082808D10D480068E3
:101F400020F46040216940EAC1000A49086000F0BD
:101F500061F808490968C1F30311074A515CC84098
:101F60000649086006480068FFF76AFE00204CE753
:101F7000003C0240083802409C760008180000200F
:101F8000100000200F2202600D4A126802F00302C6
:101F900042600B4A126802F0F0028260084A12683E
:101FA00002F4E052C260064A126802F46042D208AB
:101FB0000261044A126802F007020A6070470000DA
:101FC00008380240003C02400148006870470000A9
:101FD0001800002000B5FFF7F7FF04490968C1F3B6
:101FE0008221034A515CC84000BD0000083802400D
:101FF000AC76000800B5FFF7E7FF04490968C1F3B4
:102000004231034A515CC84000BD0000083802401C
:10201000AC7600082DE9F047002400250026A146F3
:102020002548006800F00C0020B1042805D00828DD
:102030003AD105E0DFF8849039E0DFF8849036E0AB
:102040001D48001F006800F03F041B48001F006887
:1020500000F4800078B11A481749091F0968C1F3D4
:102060008811A0FB01700146224600233846FEF786
:102070007BF905460EE011480F49091F0968C1F3B5
:102080008811A0FB01700146224600233846FEF766
:102090006BF905460848001F0068C0F30140401C6A
:1020A0004600B5FBF6F902E0DFF8109000BF00BF74
:1020B0004846BDE8F0870000083802400024F400DC
:1020C00040787D01F8B504460CB90120F8BD2078B0
:1020D00000F00100002874D0F948006800F00C00FE
:1020E00004280DD0F648006800F00C00082813D131
:1020F000F348001F006800F48000B0F5800F0BD19A
:10210000EF4808380068C0F34040002859D06068A4
:10211000002856D10120D9E700BF6068B0F5803FA4
:1021200008D1E7480838006840F48030E4490839AD
:1021300008601EE06068B0F5A02F0DD1E0480838B7
:10214000006840F48020DE490839086008460068CD
:1021500040F4803008600CE0D9480838006820F46A
:102160008030D749083908600846006820F480208C
:10217000086000BF606890B1FFF732FD054606E0D9
:10218000FFF72EFD401B642801D903209EE7CC48B1
:1021900008380068C0F340400028F1D011E0FFF794
:1021A0001FFD054606E0FFF71BFD401B642801D913
:1021B00003208BE7C24808380068C0F3404000287D
:1021C000F1D1207800F0020002285FD1BC480068FD
:1021D00000F00C0058B1BA48006800F00C00082864
:1021E0001CD1B748001F006800F48000B0B9B448A3
:1021F00008380068C0F3400020B1E068012801D031
:10220000012063E7AE480838006820F0F800216933
:1022100040EAC100AA490839086037E0E06800B325
:102220000120A8490860FFF7DBFC054606E0FFF740
:10223000D7FC401B022801D9032047E7A0480838F3
:102240000068C0F340000028F1D09D4808380068BD
:1022500020F0F800216940EAC10099490839086076
:1022600014E0002097490860FFF7BAFC054606E035
:10227000FFF7B6FC401B022801D9032026E790484F
:1022800008380068C0F340000028F1D1207800F041
:10229000080008282CD16069A8B101208A4908608B
:1022A000FFF79EFC054606E0FFF79AFC401B02285C
:1022B00001D903200AE782486C300068C0F340006F
:1022C0000028F1D014E000207F490860FFF788FC67
:1022D000054606E0FFF784FC401B022801D90320D5
:1022E000F4E677486C300068C0F340000028F1D174
:1022F000207800F00400042870D10027704838309E
:10230000006800F0805090B900BF002000906C4839
:102310003830006840F0805069493831086008461C
:10232000006800F08050009000BF00BF01276748A0
:10233000006800F48070B0B96448006840F48070B0
:1023400062490860FFF74CFC054606E0FFF748FCD1
:10235000401B022801D90320B8E65C48006800F45D
:1023600080700028F2D000BFA068012808D154482E
:102370006830006840F001005149683108601DE094
:10238000A06805280DD14E486830006840F0040070
:102390004B49683108600846006840F00100086059
:1023A0000CE047486830006820F00100444968317B
:1023B00008600846006820F00400086000BFA068BC
:1023C000A8B1FFF70DFC054609E0FFF709FC401B2B
:1023D00041F28831884202D9032077E626E0384866
:1023E00068300068C0F340000028EED013E0FFF72B
:1023F000F7FB054608E0FFF7F3FB401B41F288318D
:10240000884201D9032061E62D4868300068C0F396
:1024100040000028EFD1012F07D12948383000684B
:1024200020F0805026493831086000BFA06900289C
:1024300045D02348006800F00C0008285DD0A06952
:10244000022845D100201F490866FFF7C9FB054651
:1024500006E0FFF7C5FB401B022801D9032035E643
:10246000174808380068C0F340600028F1D1D4E96B
:1024700007010843616A40EA81110122A06AC2EBA8
:10248000500041EA00412C20005D41EA00600C4907
:10249000091F086001200B490866FFF7A1FB0546EC
:1024A00006E0FFF79DFB401B022801D903200DE643
:1024B000034808380068C0F340600028F1D049E0C4
:1024C0000838024000004742800E4742007000403A
:1024D000002021490866FFF783FB054606E0FFF769
:1024E0007FFB401B022801D90320EFE51B48006851
:1024F000C0F340600028F2D12CE0A069012800D18F
:10250000E4E51648001D0668A069012820D006F4FD
:102510008001E06981421BD106F03F01206A8142BF
:1025200016D147F6C0703040616AB0EB811F0FD101
:1025300006F440310122A06AC2EB5000B1EB004F1B
:1025400006D106F070612C20005DB1EB006F01D068
:102550000120BBE50020B9E50000474200380240F9
:102560007047704710B504460CB9012010BD94F8AF
:102570003D0028B9002084F83C00204600F025F8F2
:10258000022084F83D00211D206801F0C3FB0120DA
:1025900084F8460000BF84F83E0001213F20015529
:1025A000402001554120015500BF00BF012084F8A3
:1025B000420043200155442001554520015500BFEC
:1025C000012084F83D000020D0E77047014691F8D3
:1025D0003D00012801D001207047022081F83D0014
:1025E0000868C06840F001000B68D8601A4B0868A2
:1025F00098421BD00868B0F1804F17D0174B08687D
:10260000984213D0164B086898420FD0154B0868B3
:1026100098420BD0144B0868984207D0134B0868B7
:10262000984203D0124B086898420CD10868806821
:1026300000F00702062A0CD00868006840F001008C
:102640000B68186005E00868006840F001000B683E
:1026500018600020C0E700000000014000040040B6
:1026600000080040000C0040000401400040014010
:1026700000180040704770B504462068C56820689F
:10268000066906F00200022819D105F002000228AE
:1026900015D1401F216808610120207720688069DA
:1026A00000F0030018B12046FFF7E4FF05E02046E4
:1026B00000F097F8204600F095F80020207706F00B
:1026C0000400042819D105F00400042815D1C043E2
:1026D00021680861022020772068806900F440703A
:1026E00018B12046FFF7C6FF05E0204600F079F854
:1026F000204600F077F80020207706F00800082830
:1027000019D105F00800082815D1C04321680861D7
:10271000042020772068C06900F0030018B120462B
:10272000FFF7A8FF05E0204600F05BF8204600F028
:1027300059F80020207706F01000102819D105F074
:102740001000102815D1C0432168086108202077A7
:102750002068C06900F4407018B12046FFF78AFF76
:1027600005E0204600F03DF8204600F03BF8002050
:10277000207706F0010048B105F0010030B16FF09C
:10278000010021680861204600F02EF806F0800064
:10279000802809D105F08000802805D1C043216838
:1027A00008612046FFF7DCFE06F04000402809D112
:1027B00005F04000402805D1C0432168086120464B
:1027C00000F01EF806F02000202809D105F02000B6
:1027D000202805D1C043216808612046FFF7C1FECB
:1027E00070BD70477047000010B50446034920686B
:1027F000884201D1FFF7FAF910BD00000000014046
:102800007047F8B504460D46164694F84200202855
:102810002DD105B10EB90120F8BD012020630020A3
:10282000606332462946204601F0FEFD0746206BD4
:10283000012819D100BF0020009020680068009096
:1028400020684068009000BF00BF00BF00BF216843
:102850000C3151E8001F41F0100021680C3141E8B3
:102860000002002AF3D100E001273846D4E7022015
:10287000D2E7000070B504460D460649206888423C
:1028800007D12A462146044801F05EF90020034999
:10289000086070BD0014014098510020D401002050
:1028A00070B50446002520684069C0F3C01594F84F
:1028B0004100212817D1B5B100BF00BF21681431F4
:1028C00051E8001F21F080002168143141E8000226
:1028D000002AF3D100BFA06B10B1A06BFEF735FE4C
:1028E000204601F0F9FB20684069C0F3801594F898
:1028F0004200222817D1B5B100BF00BF21681431B2
:1029000051E8001F21F040002168143141E8000225
:10291000002AF3D100BFE06B10B1E06BFEF715FEAB
:10292000204601F093FB002070BD00007CB50446FA
:102930003149206888425DD1FFF752F906462F4899
:102940004069301A0A2805D22C488069401C2B495E
:10295000886102E0002029498861284846612046B4
:10296000FFF79EFF00206064202084F8420084F876
:1029700041002068056805F00E00F0B1206800688D
:10298000019020684068009005F0080020B11B48C5
:102990004068401C1949486005F0040020B1174800
:1029A000C068401C1549C86005F0020020B11348FA
:1029B0008068401C1149886000BF05F0010040B1EB
:1029C0002068006801900D480069401C0B490861AF
:1029D00000BF0A480068401C0849086008460068B3
:1029E000074908600748066000222146064801F0B2
:1029F000ABF800BF7CBD0000001401406051002016
:102A0000C8010020CC010020985100202DE9F84F8A
:102A10000446206805682068C668206847694FF04A
:102A20000009CA4605F00F09B9F1000F0AD105F0F7
:102A3000200038B106F0200020B1204601F05FFBF5
:102A4000BDE8F88FB9F1000F7CD007F0010018B98C
:102A500006F49070002875D005F0010030B106F43E
:102A6000807018B1606C40F00100606405F00400F3
:102A700030B107F0010018B1606C40F002006064F2
:102A800005F0020030B107F0010018B1606C40F0B1
:102A90000400606405F0080048B106F0200010B999
:102AA00007F0010018B1606C40F008006064606CD1
:102AB000002846D005F0200028B106F0200010B113
:102AC000204601F01CFB20684069C0F3801A606C4E
:102AD00000F0080010B9BAF1000F2DD0204601F027
:102AE000B5FA2068406900F04000402820D100BFBE
:102AF00000BF2168143151E8001F21F04000216817
:102B0000143141E80002002AF3D100BFE06B50B15C
:102B10007F48E16B0865E06BFEF76DFD88B1E06B07
:102B2000016D88470DE02046FFF700FF09E009E04E
:102B30002046FFF7FBFE04E02046FFF7F7FE0020EB
:102B400060647DE7206B012878D105F01000002833
:102B500074D006F010000028FAD000BF00200090CA
:102B600020680068009020684068009000BF00BFA7
:102B70002068406900F04000402870D1E06B006898
:102B800040681FFA80F8B8F1000F58D0A08D40457A
:102B900055DDA4F82E80E06BC069B0F5807F43D08E
:102BA00000BF00BF21680C3151E8001F21F4807084
:102BB00021680C3141E80002002AF3D100BF00BFB8
:102BC00000BF2168143151E8001F21F00100216885
:102BD000143141E80002002AF3D100BF00BF00BF5A
:102BE0002168143151E8001F21F0400021681431A0
:102BF00041E80002002AF3D100BF202084F84200FF
:102C00000020206300BF00BF21680C3151E8001F85
:102C100021F0100021680C3141E80002002AF3D1B4
:102C200000BFE06BFEF791FC02206063A08DE28D97
:102C3000801A81B22046FFF71DFE0EE052E0A08D03
:102C400040450AD1E06BC069B0F5807F05D1022014
:102C50006063A18D2046FFF70DFEF1E6FFE7A08D32
:102C6000E18D401A1FFA80F8E08DD0B3B8F1000F63
:102C700037D000BF00BF21680C3151E8001F21F49C
:102C8000907021680C3141E80002002AF3D100BFA6
:102C900000BF00BF2168143151E8001F21F001007E
:102CA0002168143141E80002002AF3D100BF20203E
:102CB00084F842000020206300BF00BF21680C316F
:102CC00051E8001F21F0100021680C3141E800029A
:102CD000002AF3D100BF0220606341462046FFF77F
:102CE000C9FDADE605F0800030B106F0800018B1F6
:102CF000204601F005FCA3E605F0400030B106F0E7
:102D0000400018B1204601F0D7F999E600BF97E6D8
:102D1000AD3E000810B504460CB9012010BDA069F5
:102D200000B100E000BF94F8410028B9002084F809
:102D30004000204600F02AF8242084F84100206852
:102D4000C06820F400502168C860204601F056FA9F
:102D50002068006920F4904021680861206840697B
:102D600020F02A00216848612068C06840F40050C3
:102D70002168C86000206064202084F8410084F845
:102D800042000020606300BFC8E7000010B586B0B5
:102D90000446142101A8FDF7DDFBFE4920688842A6
:102DA00075D100BF00200090FB48006840F400206F
:102DB000F94908600846006800F40020009000BF50
:102DC00000BF00BF00200090F3481038006840F0BA
:102DD0000400F149103908600846006800F004005A
:102DE000009000BF00BF4FF44060019002200290AD
:102DF00000200390032004900820059001A9E748D3
:102E0000FEF7EEFDE648E74908604005486000210E
:102E1000E4488160C1604FF480610161002141613B
:102E20008161C16101624162FEF71AFD08B1FDF7DF
:102E3000B7FD00BFDB48E063846300BFD848303093
:102E4000D94908604FF0006048604021D648816051
:102E50000021C1604FF48061016100214161816105
:102E6000C16101624162FEF7FBFC08B1FDF798FD0C
:102E700000BFCD48A063846300BF00220521342039
:102E8000FEF76CFF3420FEF755FF30E2FFE7C7493D
:102E9000206888427ED100BF00200090BE480068B4
:102EA00040F48010BC4908600846006800F48010B7
:102EB000009000BF00BF00BF00200090B64810384F
:102EC000006840F00400B449103908600846006802
:102ED00000F00400009000BF00BF00BF0020009081
:102EE0000846006840F0080008600846006800F0E6
:102EF0000800009000BF00BF8814019002200290DB
:102F000000200390032004900820059001A9A34805
:102F1000FEF766FD0420019002200290002003903D
:102F2000032004900820059001A9A148FEF758FD50
:102F30009B4830389F490860C005486000219D4883
:102F40008160C1604FF48061016100214161816154
:102F5000C16101624162FEF783FC08B1FDF720FD0B
:102F600000BF9448E063846300BF8D487830924985
:102F700008604FF00060486040218F488160002168
:102F8000C1604FF480610161002141618161C161D3
:102F9000016200E013E04162FEF762FC08B1FDF758
:102FA000FFFC00BF8448A063846300BF00220521AA
:102FB0003520FEF7D3FE3520FEF7BCFE97E17F49B2
:102FC0002068884276D100BF0020009072480068D7
:102FD00040F40030704908600846006800F4003092
:102FE000009000BF00BF00BF002000906A4810386A
:102FF000006840F008006849103908600846006819
:1030000000F00800009000BF00BF60200190022087
:10301000029000200390032004900720059001A94E
:103020006348FEF7DDFC5E484830654908604FF0B4
:1030300000604860002162488160C1604FF4806197
:103040000161002141618161C16101624162FEF75C
:1030500007FC08B1FDF7A4FC00BF5948E063846396
:1030600000BF4F486030574908604FF0006048602B
:103070004021544881600021C1604FF480610161AA
:10308000002141618161C16101624162FEF7E8FB9B
:1030900008B1FDF785FC00BF4A48A063846300BF08
:1030A000002205212620FEF759FE2620FEF742FECB
:1030B0001DE1FFE744492068884269D100BF002034
:1030C00000903548006840F4802033490860084685
:1030D000006800F48020009000BF00BF00BF002007
:1030E00000902D481038006840F002002A4910393D
:1030F00008600846006800F00200009000BF00BFB2
:103100004FF44060019002200290002003900320C1
:1031100004900720059001A92C48FEF761FC204887
:1031200018382B4908604FF000604860002128489B
:103130008160C1604FF48061016100214161816162
:10314000C16101624162FEF78BFB08B1FDF728FC0B
:1031500000BF1F48E063846300BF114818301D4959
:1031600008604FF00060486040211A4881600021EB
:10317000C1604FF480610161002141618161C161E1
:1031800001624162FEF76CFB08B1FDF709FC23E028
:1031900030E00000004C004040380240000802408F
:1031A00040600240280400208804002000500040B5
:1031B000000C0240E80400204805002000440040C4
:1031C000A805002008060020004800400004024036
:1031D00068060020C806002000BF4648A06384633C
:1031E00000BF002205212720FEF7B8FD2720FEF7AB
:1031F000A1FD7CE040492068884278D100BF0020D2
:1032000000903E48006840F020003C4908600846B5
:10321000006800F02000009000BF00BF00BF002049
:10322000009036481438006840F0040033491439DF
:1032300008600846006800F00400009000BF00BF6E
:10324000C0200190022002900020039003200490EF
:103250000820059001A92A48FEF7C2FB29482A49FF
:10326000086080054860002127488160C1604FF4F4
:1032700080610161002141618161C1614FF40031D0
:10328000016200214162FEF7EBFA08B1FDF788FB0D
:1032900000BF1D48E063846300BF1A4878301B49B3
:1032A00008604FF02060486040211848816000218C
:1032B000C1604FF480610161002141618161C161A0
:1032C0004FF40031016200214162FEF7C9FA08B1F2
:1032D000FDF766FB00BF0D48A063846300BF0022BA
:1032E00005214720FEF73AFD4720FEF723FD06B0F3
:1032F00010BD0000C8060020001401404438024000
:1033000000080240286402402807002088070020A7
:1033100070B504460D46164694F8420020280BD19D
:1033200005B10EB9012070BD002020633246294648
:10333000204601F079F8F6E70220F4E7704770477D
:10334000F7B50446154694F8410020283ED101986F
:1033500000B10DB90120FEBD01982062A584E5846D
:1033600000206064212084F841001948A16BC863E3
:103370001848A16B08641848A16BC8640020A16BB1
:10338000086501AE23681A1D31682B46A06BFEF755
:10339000DDFA30B110206064202084F84100012063
:1033A000D9E76FF040002168086000BF00BF2168C6
:1033B000143151E8001F41F080002168143141E8C8
:1033C0000002002AF3D100BF0020C4E70220C2E7B8
:1033D000E73F00083F400008BF3E000810B5044624
:1033E00004492068884203D12146034800F0ECFBE1
:1033F00010BD00000014014098510020704700BF2C
:10340000FEE700002DED088B82B09FED5D0A5D4860
:1034100080ED210A9FED5A0A80ED220A9FED580A9D
:1034200080ED230A9FED580A80ED240A9FED570A8C
:1034300080ED290A9FED520A80ED2A0A9FED500A7D
:1034400080ED2B0A9FED4E0A80ED2C0A9FED4E0A6F
:1034500080ED2D0A9FED4D0A80ED320A03F0F8FA57
:10346000019000BF4A480068022814D1494800680A
:1034700088B99FED432ADFED421A9FED411ADFED37
:10348000400A9FED3F0A4448FDF728FB4248FDF7FC
:103490008BFA044600BF3F480068D8BB3C48006830
:1034A000C0BB3D48143890ED0D0ABDEEC00A10EEC9
:1034B000100A00B208EE100AB8EEC80AF0EE000AD0
:1034C00020EE200A10EE101A084604F055F841ECE0
:1034D0001B0B9FED320B53EC102B03F04FFF41EC15
:1034E0001A0B9FED300B53EC102B03F07BFD41ECDE
:1034F000190B03F045FD08EE900AFEF771FB044638
:103500002548143890ED010AB0EE401A21469FED8F
:10351000272A00E00CE0DFED1A1ADFED190AB0EE01
:10352000680A2348FDF706F901201949086000BF21
:103530001848006801281DD11748FDF735FA0446E0
:1035400015481438D0ED042AB0EE622AD0ED032AD3
:10355000F0EE621AD0ED012AB0EE621AD0ED022A26
:10356000F0EE620AD0ED002AB0EE620A1430FDF7E8
:10357000B5FA00BF052101A802F04AFA72E700007F
:1035800000000000B05100200000FA4300401C463B
:10359000C4010020C0010020FC010020182D44546B
:1035A000FB210940000000000000E040CDCC4C3E73
:1035B0003051002010B50E480E49086003204860C5
:1035C00000210C488160C1604FF4A02101614FF4DB
:1035D000C00141610021017641768176C176017793
:1035E0004177FDF7B7FD08B1FDF7DAF910BD00002E
:1035F000006400407002002010B50E480E490860BB
:103600000320486000210C488160C1604FF4A02174
:1036100001614FF4C001416100210176417681765C
:10362000C17601774177FDF795FD08B1FDF7B8F94F
:1036300010BD0000006800409802002008B500BFDF
:10364000002000903648006840F4001034490860BB
:103650000846006800F40010009000BF00BF00BFE3
:10366000002000900846006840F48000086008468A
:10367000006800F48000009000BF00BF0022052118
:103680000B20FEF76BFB0B20FEF754FB00220521FD
:103690000C20FEF763FB0C20FEF74CFB00220521FB
:1036A0000D20FEF75BFB0D20FEF744FB00220521F9
:1036B0000E20FEF753FB0E20FEF73CFB00220521F7
:1036C0000F20FEF74BFB0F20FEF734FB00220521F5
:1036D0001020FEF743FB1020FEF72CFB00220521F3
:1036E0001120FEF73BFB1120FEF724FB00220521F1
:1036F0002F20FEF733FB2F20FEF71CFB00220521B5
:103700003920FEF72BFB3920FEF714FB00220521A0
:103710004520FEF723FB4520FEF70CFB08BD00000B
:103720003038024010B503220021012002F06EFC67
:1037300007490860074A0021074801F06FF9074967
:1037400008601023064A0749074800F09BF910BD9E
:1037500000000020707600080D3C000804000020E6
:1037600000000240E00300209851002000B587B01F
:10377000142102A8FCF7EEFE00BF002001902D48A6
:10378000006840F080002B4908600846006800F09F
:103790008000019000BF00BF00BF002001900846DC
:1037A000006840F0010008600846006800F0010071
:1037B000019000BF00BF00BF0020019008460068D4
:1037C00040F0020008600846006800F00200019026
:1037D00000BF00BF00BF002001900846006840F015
:1037E000040008600846006800F00400019000BF73
:1037F00000BF00BF002001900846006840F00800AC
:1038000008600846006800F00800019000BF00BF93
:10381000002210210848FEF7DDF910200290012057
:10382000039000200490059002A90348FEF7D8F801
:1038300007B000BD303802400000024010B50B4810
:103840000B4908604FF4E13048600021084881606E
:10385000C16001610C21416100218161C161FFF7FB
:1038600059FA08B1FDF79CF810BD0000004C00406B
:10387000C002002010B50B480B4908604FF4E1303E
:103880004860002108488160C16001610C214161EC
:1038900000218161C161FFF73DFA08B1FDF780F8B1
:1038A00010BD0000005000400803002010B50B4878
:1038B0000B4908604FF4E1304860002108488160FE
:1038C000C16001610C21416100218161C161FFF78B
:1038D00021FA08B1FDF764F810BD00000044004073
:1038E0005003002010B50B480B4908604FF4E1303D
:1038F0004860002108488160C16001610C2141617C
:1039000000218161C161FFF705FA08B1FDF748F8B0
:1039100010BD0000004800409803002010B50A4880
:103920000A4908600A484860002108488160C1606F
:1039300001610C21416100218161C161FFF7EAF958
:1039400008B1FDF72DF810BD00140140E003002080
:1039500000093D0000BFFEE72DE9F04104460F4697
:1039600015461E463868A16A0968884215D1E06A82
:10397000A84212D13146204600F014F894F8800095
:1039800020B9012084F8800020692063216B206920
:10399000401A60630120BDE8F0810020FBE700BF12
:1039A000FEE7000010B54A780B7842EA0322028055
:1039B000CA788B7842EA032212B242804A790B79A4
:1039C00042EA032212B282808A7982710288838954
:1039D000D21A14B2B4F57A6F03DDC289521E12B244
:1039E000C28114F57A6F03DAC289521C12B2C28105
:1039F0000388B0F90E2003EB4232026190ED040A15
:103A0000B8EEC00ADFED1E0A20EE200A80ED050A9E
:103A1000B0F90220B0F90430D0ED060A00EE102A09
:103A2000B8EEC00A60EE800A00EE102AB8EEC00AB6
:103A300060EE800A90ED071A00EE102AB8EEC00A78
:103A400021EE001A00EE103AB8EEC00A41EE000A6C
:103A500090ED081A00EE103AB8EEC00A21EE001AF6
:103A600000EE103AB8EEC00A41EE000A90ED090AE5
:103A700030EE800A80ED020A0288828110BD0000CB
:103A80000000343D2DE9F04104460F4615461E4620
:103A90006560A660276003220021012002F0B6FACB
:103AA000206103220021012002F0B0FAE060B1B2EF
:103AB00000222846FEF78EF8BDE8F0812DE9F84F88
:103AC0000446884615461E46DDF8289000206061B1
:103AD0000021206902F0FAFD228991B2002260687B
:103AE000FEF778F82068FEF7DBFE00BF00200090AC
:103AF00020680068006800902068006840680090B6
:103B000000BF00BFAAB241462068FEF77AFE2068D7
:103B1000C06B0068006820F008002168C96B096864
:103B200008604FF47A7070434FF47A71B0FBF1FA89
:103B30005146206902F0CAFD07466069C9F80000D5
:103B40003846BDE8F88F0000F8B504460D46164625
:103B5000206800682968884210D16661694620693A
:103B600002F090FC009838B14FF080500449086092
:103B7000BFF34F8FBFF36F8F0120F8BD0020FCE72C
:103B800004ED00E02DE9F04104460F4615461E46BF
:103B90000021E06802F09AFD228991B2012260685A
:103BA000FEF718F8AAB239462068FFF7C9FB4FF4B0
:103BB0007A7070434FF47A71B0FBF1F84146E068D7
:103BC00002F084FDBDE8F08138B504460D4620685A
:103BD00000682968884215D1228991B20022606864
:103BE000FDF7F8FF6946E06802F04CFC009838B138
:103BF0004FF0805004490860BFF34F8FBFF36F8FC1
:103C0000012038BD0020FCE704ED00E000F0F2F8F0
:103C1000002001F067FF00BF012000F0A9FEFBE7D4
:103C200010B54FF0E020006902F002FF012801D03A
:103C300002F0D2F910BD000000B593B0302107A802
:103C4000FCF788FC142102A8FCF784FC00BF0020CC
:103C500001902548006840F08050234908600846DC
:103C6000006800F08050019000BF00BF00BF00203E
:103C700001901E48006840F480401C4908600846D6
:103C8000006800F48040019000BF00BF0220079050
:103C900001200A9010200B9002200D9000210E911F
:103CA00008210F91A8211091022111910421129154
:103CB00007A8FEF707FA08B1FCF772FE0F20029082
:103CC00002200390002004904FF4A05005904FF480
:103CD00080500690052102A8FEF792F808B1FCF783
:103CE0005FFE13B000BD000040380240007000408D
:103CF0000348006840F47000014908607047000004
:103D000088ED00E010B50248FEF7B5FC10BD0000DC
:103D10001408002010B502682B4B98420ED0B0F169
:103D2000804F0BD0294B984208D0294B984205D0A0
:103D3000284B984202D0284B984203D122F07002BF
:103D40004B681A43204B984220D0B0F1804F1DD0D1
:103D50001E4B98421AD01E4B984217D01D4B9842CA
:103D600014D01D4B984211D01C4B98420ED01C4BC6
:103D700098420BD01B4B984208D01B4B984205D061
:103D80001A4B984202D01A4B984203D122F4407247
:103D9000CB681A4322F080034C6943EA04028B6823
:103DA000C3620B688362084B984202D00A4B984268
:103DB00001D10B690363036843F00403036001232B
:103DC0004361026010BD000000000140000400409B
:103DD00000080040000C0040000401400040014089
:103DE000004401400048014000180040001C004011
:103DF000002000401CB50648042100234FF4C8727F
:103E0000CDE9001003A1064802F082FD1CBD0000B0
:103E10006C0200204869745F5461736B00000000FD
:103E20000534000808B519480068006800F0100063
:103E3000102827D115480068C06800F0100008B3AA
:103E40001248FEF72DFD12480078AA2815D1104817
:103E5000C07ABB2811D10020009069460D48006847
:103E600002F010FB009838B14FF080500A4908600A
:103E7000BFF34F8FBFF36F8F00BF1E22044903486B
:103E8000FFF746FA0148FEF7C1FD08BDC002002059
:103E9000E80700200000002004ED00E010B5024813
:103EA000FEF7B4FD10BD00000803002070B5044605
:103EB000A56B0020E8852846FEF738FD70BD70B57B
:103EC00006460025B46B20684069C0F3C01594F81D
:103ED0004100212805D125B10020E084204600F0D2
:103EE000FBF820684069C0F3801594F8420022284E
:103EF00005D125B10020E085204600F0A7F8606CD0
:103F000040F0100060642046FEF710FD70BD70B5F3
:103F10000546AC6B2868006800F48070002842D128
:103F2000E08500BF00BF21680C3151E8001F21F47B
:103F3000807021680C3141E80002002AF3D100BFF3
:103F400000BF00BF2168143151E8001F21F00100BB
:103F50002168143141E80002002AF3D100BF00BFFC
:103F600000BF2168143151E8001F21F04000216892
:103F7000143141E80002002AF3D100BF202084F868
:103F80004200206B01280ED100BF00BF21680C3118
:103F900051E8001F21F0100021680C3141E80002B7
:103FA000002AF3D100BF00206063206B012804D1F8
:103FB000A18D2046FEF75EFC02E02046FFF7BEF929
:103FC00070BD70B50546AC6B01206063206B0128A5
:103FD00005D1A08D41082046FEF74CFC02E02046AA
:103FE000FFF7ADF970BD70B50546AC6B2868006889
:103FF00000F48070F8B90020E08400BF00BF2168A1
:10400000143151E8001F21F080002168143141E88B
:104010000002002AF3D100BF00BF00BF21680C31AD
:1040200051E8001F41F0400021680C3141E80002D6
:10403000002AF3D102E02046FFF7D0F970BD70B539
:104040000446A56B2846FFF7D9F970BD00BF00BF35
:1040500002680C3252E8002F22F4907102680C3290
:1040600042E80013002BF3D100BF00BF00BF02687D
:10407000143252E8002F22F001010268143242E8A3
:104080000013002BF3D100BF016B01290ED100BF3B
:1040900000BF02680C3252E8002F22F010010268C3
:1040A0000C3242E80013002BF3D100BF202180F82E
:1040B000421000210163704710B504462068C068B3
:1040C00020F040002168C860202084F8410020468C
:1040D000FFF784F9002010BD00BF00BF02680C325A
:1040E00052E8002F22F0C00102680C3242E80013AF
:1040F000002BF3D100BF202180F841107047F8B5A4
:1041000004460025002694F84200222873D1A068B6
:10411000B0F5805F0BD1206948B9A66A2068406875
:10412000C0F308003080A06A801CA06214E0A56A79
:10413000A068B0F5805F03D0A06828B9206918B9DD
:1041400020684068287004E02068406800F07F0024
:104150002870A06A401CA062E08D401E80B2E085FD
:10416000002846D12068C06820F020002168C8607F
:104170002068C06820F480702168C86020684069A9
:1041800020F0010021684861202084F842000020CE
:104190006063206B012826D10020206300BF00BF90
:1041A00021680C3151E8001F21F0100021680C310A
:1041B00041E80002002AF3D100BF2068006800F047
:1041C000100010280AD100BF00200090206800686D
:1041D000009020684068009000BF00BFA18D20467D
:1041E000FEF748FB02E02046FFF7A8F80020F8BDE4
:1041F00001E00020FBE70220F9E700002DE9F84F7D
:1042000004462068006920F44050E16808432168B2
:1042100008612169A068084361690843E1690843AE
:1042200000902068C06849F20C61884300990843F7
:104230002168C8602068406920F44070A169084383
:104240002168486176492068884203D07549206812
:10425000884203D1FDF7CEFE814602E0FDF7BAFEAB
:104260008146E069B0F5004F6CD102206168A0FB87
:10427000015003461920A9FB007001462A46384622
:10428000FCF772F86421B0FBF1F04FEA001A02204B
:104290006168A0FB01510B461920A9FB00712A4659
:1042A0003846FCF761F8834602206168A0FB0150A4
:1042B00003461920A9FB00712A463846FCF754F83A
:1042C0006421B0FBF1F000EBC00101EB0010ABEB9F
:1042D0008000322101EBC0006421B0FBF1F000F05E
:1042E000F8000AEB400A02206168A0FB0150034677
:1042F0001920A9FB007001462A463846FCF734F81D
:10430000834602206168A0FB015003461920A9FBE7
:1043100000712A463846FCF727F86421B0FBF1F01B
:1043200000EBC00101EB0010ABEB8000322101EB90
:10433000C0006421B0FBF1F000F007005044216898
:1043400088606AE004206168A0FB015003461920E0
:10435000A9FB007001462A463846FCF705F882465C
:1043600004206168A0FB015003461920A9FB0070DE
:1043700001462A463846FBF7F7FF6421B0FBF1F00F
:1043800000EBC00101EB0010AAEB8000322101EB31
:1043900000106421B0FBF1F000F0F00A0420616825
:1043A000A0FB017003461920A9FB00513A4628469C
:1043B000FBF7DAFF6421B0FBF1F00AEB001A0420EE
:1043C0006168A0FB01510B461920A9FB00712A4628
:1043D0003846FBF7C9FF834604206168A0FB015003
:1043E00003461920A9FB007001462A463846FBF710
:1043F000BBFF6421B0FBF1F000EBC00101EB00104A
:10440000ABEB8000322101EB00106421B0FBF1F036
:1044100000F00F00504421688860BDE8F88F00006C
:10442000001001400014014077B581B004461546E4
:104430000298A062A58500206064222084F84200D2
:104440002C48E16BC8632C48E16B08642B48E16B96
:10445000C8640020E16B086502AE32682368191D4C
:104460002B46E06BFDF772FA38B110206064202013
:1044700084F84200012004B070BD00BF002000900D
:1044800020680068009020684068009000BF00BF6E
:10449000206970B100BF00BF21680C3151E8001FD6
:1044A00041F4807021680C3141E80002002AF3D108
:1044B00000BF00BF00BF2168143151E8001F41F068
:1044C00001002168143141E80002002AF3D100BF45
:1044D00000BF00BF2168143151E8001F41F04000C7
:1044E0002168143141E80002002AF3D100BF002006
:1044F000C1E700000F3F0008C33F0008BF3E0008AF
:10450000014691F84100212828D18868B0F5805FE4
:104510000BD1086948B90A6A1088C0F308000B6813
:104520005860086A801C086205E00B6A581C086223
:1045300018780B685860C88C401E80B2C88458B97F
:104540000868C06820F080000B68D8600868C06800
:1045500040F040000B68D860002070470220FCE764
:1045600010B50248FEF752FA10BD000050030020BB
:1045700010B50248FEF74AFA10BD0000980300206B
:1045800008B51C48FEF742FA00BF00200090194809
:10459000006800680090174800684068009000BFFD
:1045A00000BF00BF00200090124800680068009023
:1045B000104800684068009000BF00BF00BF0020A6
:1045C00000900C480068006800900A480068406845
:1045D000009000BF00BF00BF0020009005480068A9
:1045E00000680090034800684068009000BF00BF6A
:1045F00008BD0000E003002000BFFEE72DE9F04108
:104600002DED048B0546884617461C46D8F8000059
:1046100029680968884204D00020BDEC048BBDE8FD
:10462000F081F8B26968884201D00020F5E7C7F34D
:104630000726092E33D120780006617840EA014030
:10464000A17840EA0120E1780843A86061792279E5
:1046500041EA022108B202F07AFE41EC190B9FED0B
:10466000830B53EC102B02F089FE41EC180B02F087
:1046700087FCE860E179A27941EA022108B202F000
:1046800066FE41EC190B9FED7B0B53EC102B02F0F7
:1046900075FE41EC180B02F073FC2861E4E00E2E6D
:1046A00034D121780906627841EA0241A27841EAD0
:1046B0000221E27841EA020002F049FE41EC190BC6
:1046C0009FED6E0B53EC102B02F058FE41EC180BD3
:1046D00002F056FC686121790906627941EA0241DB
:1046E000A27941EA0221E27941EA020002F02FFEBA
:1046F00041EC190B9FED610B53EC102B02F03EFEC9
:1047000041EC180B02F03CFCA861ADE00F2E34D157
:1047100021780906627841EA0241A27841EA022141
:10472000E27841EA020002F012FE41EC190B9FED23
:10473000530B53EC102B02F021FE41EC180B02F04E
:104740001FFCE86121790906627941EA0241A279F8
:1047500041EA0221E27941EA020002F0F8FD41EC6F
:10476000190B9FED460B53EC102B02F007FE41ECAA
:10477000180B02F005FC286276E0102E50D161780B
:10478000227841EA022108B202F0E1FD41EC190B66
:104790009FED360B53EC102B02F0F0FD41EC180BA3
:1047A00002F0EEFB6862E178A27841EA022108B2E9
:1047B00002F0CDFD41EC190B9FED2C0B53EC102BAF
:1047C00002F0DCFD41EC180B02F0DAFBA862617923
:1047D000227941EA022108B202F0B9FD41EC190B3D
:1047E0009FED220B53EC102B02F0C8FD41EC180B8F
:1047F00002F0C6FBE862E179A27941EA022108B23F
:1048000002F0A5FD41EC190B9FED1E0B53EC102B94
:1048100002F0B4FD41EC180B02F0B2FBA86323E0F8
:104820001B2E1FD120780006617840EA0140A17854
:1048300040EA0120E178084368636179227941EA1E
:10484000022108B202F083FD41EC190B9FED070B2A
:1048500053EC102B02F092FD41EC180B02F090FB90
:10486000286301E00020D8E60120D6E69A999999BC
:104870009999B93FFCA9F1D24D62503F2D431CEBF1
:10488000E2361A3F7B14AE47E17A943F0248006853
:10489000C0F30220704700000CED00E010B50028C6
:1048A00004DB0A07130E054A135406E00A07140E28
:1048B000034A00F00F031B1FD45410BD00E400E0B6
:1048C00018ED00E0EFF30580704770B506460C4622
:1048D000154605E014F8011B304600F007F80646BF
:1048E000281EA5F10105F5D1304670BD024682EAC9
:1048F0000100C0B2024B33F8100080EA222070475A
:10490000B4760008FDF77EF9FFF796F9FEF72EFF63
:10491000FEF794FEFEF74EFEFEF76EFEFEF7C6FFB4
:10492000FEF7FCFFFEF78AFFFEF7A4FFFEF7DAFFB3
:104930000D48FBF7D5FE0C48FCF7D1FD10210A48C5
:10494000FCF770F90948FBF7CBFE0848FCF7C7FDF8
:1049500002210648FCF766F900F01AF8FEF7E2FEBD
:1049600000F02CF800BFFEE7980200207002002043
:1049700070B50546FFF7A6FF10B16FF0050404E01F
:10498000002415B1284601F015F8204670BD00003E
:1049900010B5FFF797FF10B16FF0050409E0064866
:1049A000006820B9012004490860002401E04FF0AC
:1049B000FF34204610BD00006C00002070B5FFF7EA
:1049C00081FF10B16FF005041FE011480068012855
:1049D00019D100BF801F0021002804DB0A07130E35
:1049E0000C4A135406E00A07150E0B4A00F00F0399
:1049F0001B1FD55400BF00BF02200549086001F00D
:104A00008BF9002401E04FF0FF34204670BD000018
:104A10006C00002000E400E018ED00E02DE9FF4705
:104A200080468946144600200390FFF74BFF00287C
:104A30004ED1B8F1000F4BD0802618258246471E74
:104A400044B3206808B1D4F800A0A06900B1A569FA
:104A50002DB1382D03D8207900F0010018B10020C5
:104A600004B0BDE8F087606908B160698608A06895
:104A700040B1E0685C2805D3206918B1606908B1CD
:104A8000012708E0A06830B9E06820B9206910B9B2
:104A9000002700E00027012F0CD12169A0684B46B8
:104AA0003246CDE9005102905146404601F062FF86
:104AB00003900DE067B903A8B2B24B465146CDE969
:104AC0000050404601F024FF012801D0002003904F
:104AD0000398C5E72DE9F04105460E4616480768DC
:104AE00016480068001D00F0DDFD681C38B936B1BD
:104AF00012480168091D124800F02AFE1AE07C19CC
:104B00000E4800684460BC4207D20C480168091D89
:104B10000C48006800F002FE0CE008480168091D1E
:104B20000948006800F0FAFD08480068844201D294
:104B300006480460BDE8F081300000201C00002021
:104B40004C0D002024000020200000204C000020FC
:104B500010B5044600F008FE24480068401C2349B4
:104B600008602348006840B921480460084600688E
:104B700001280DD100F006FA0AE01E48006838B995
:104B80001B480068C06AE16A884201D8184804607E
:104B900019480068401C18490860084600686064AD
:104BA0001649E06A0968884202D91449E06A086037
:104BB000E16A01EB8101124A02EB8100211D00F044
:104BC000C7FD00F0FBFD0B48006868B108480068AD
:104BD000C06AE16A884207D24FF0805009490860F4
:104BE000BFF34F8FBFF36F8F10BD00002C0000206C
:104BF0001C00002038000020480000203400002065
:104C00009C08002004ED00E008B500F0ADFD12485E
:104C10000068E8B9114800F071FD114800F06EFD20
:104C20000E48104908600E480F49086000200F4BDD
:104C30000F4A102100900A2001F015FA0649086079
:104C40000846006820B10BA10348006800F076FE1A
:104C500000F0B4FD08BD000060000020600D0020E1
:104C6000740D0020580000205C000020880D0020FA
:104C7000D80D0020546D72510000000010B516E0F0
:104C800000F072FD0C48C068C468201D00F00AFDE9
:104C90000A480068401E0949086009480068401E2B
:104CA0000749086000F08AFD204600F05FF80448DC
:104CB00000680028E4D110BD380D00202C00002031
:104CC0002800002070B504460D46206C70B1216CA0
:104CD000E0680144E160D4E90210884201D3216810
:104CE000E1602846226CE168FBF7B5FB70BD2DE959
:104CF000F04104460F4615464FF00008A66B206CA5
:104D000048B9206800282CD1A06801F049FF8046EE
:104D10000020A06025E07DB93946226C6068FBF771
:104D20009AFB216C606808446060D4E90101884204
:104D300017D32068606014E03946226CE068FBF706
:104D40008AFB216CE068411AE1602168E0688842D2
:104D500003D2216CA068411AE160022D01D106B195
:104D6000761E701CA0634046BDE8F08110B5044675
:104D700094F8590030B9206B00F03EFD204600F059
:104D80003BFD1AE094F85900012803D1204600F0B9
:104D900033FD12E094F85900022801D1012000E00F
:104DA000002050B900BF502080F31188BFF34F8F0F
:104DB000BFF36F8F00BF00BFFEE710BD01464A6A18
:104DC00022B10A6B1268C2F1380000E0002070477F
:104DD0000146084A126812680AB9012200E000225E
:104DE0000A600A6822B9034A1268D268106800E0B3
:104DF000002070475800002030B54FF4705317481A
:104E000000F007042CB1C01D20F00700134C041B58
:104E10001B1B0246124C22600024114D6C60D018FE
:104E2000083820F007000F4C206000240D4D2D683D
:104E30006C600C4D2D682C601146441A4C60094C76
:104E400024680C60084D4C682C60084D4C682C6040
:104E50004FF00044064D2C6030BD0000301500209E
:104E60007000002078000020800000207C000020DE
:104E70008C00002000BFFFF701FF064800680128F2
:104E8000F9D94FF0805004490860BFF34F8FBFF34A
:104E90006F8FF0E79C08002004ED00E02DE9F04161
:104EA00006460D4617469846069C0DB9246000E05C
:104EB0002760E66325640121204601F045F984F866
:104EC0004C80BDE8F0812DE9F05F82460E469046A9
:104ED0009B460A9F0C9C4FEA8801A522206BFBF79A
:104EE00031FBA8F10100216B01EB800929F00709D2
:104EF00009F0070008B9012000E0002050B900BF08
:104F0000502080F31188BFF34F8FBFF36F8F00BF26
:104F100000BFFEE786B1002507E0715D04F13400B3
:104F20004155705D00B902E06D1C102DF5D300BF36
:104F300000214320015502E0002084F83400382F7E
:104F400000D33727E762E76400202065201D00F0CA
:104F5000E2FB04F1180000F0DEFB2461C7F1380029
:104F6000A06164620020606584F858005A4651468A
:104F7000484600F081FB20600B9808B10B98046054
:104F8000BDE8F09F10B5002407E004EB84010F4A50
:104F900002EB810000F0B2FB641C382CF5D30C4806
:104FA00000F0ACFB0B4800F0A9FB0B4800F0A6FB9F
:104FB0000A4800F0A3FB0A4800F0A0FB0448094996
:104FC000086004480849086010BD00009C080020E3
:104FD000FC0C0020100D0020240D0020380D0020B6
:104FE0004C0D0020200000202400002010B50146B8
:104FF000164800E0006803688B42FBD30246436812
:1050000013448B4204D143684C68234443600146F7
:105010000A464B6813440468A34211D10C4C036840
:105020002468A34208D04B680468646823444B603A
:1050300003681B680B6005E0054B1B680B6001E013
:1050400003680B60884200D0016010BD7000002032
:10505000780000202DE9F04104460D4616461F4613
:105060004FF0000865602461B5420CD8F01BA169BF
:10507000884202D34FF0010811E0211D0948006861
:1050800000F04CFB0BE0BE4204D2BD4202D34FF015
:10509000010804E0211D0448006800F03FFB404681
:1050A000BDE8F0815C0000205800002070B5054686
:1050B00000F05AFBA86B08B9012400E0002400F0BE
:1050C0007DFB204670BD70B5054600F04DFBA86B1A
:1050D000E96B884201D1012400E0002400F06EFB5E
:1050E000204670BDF8B505460F461A480068C068EE
:1050F000C468201D00F0D6FA94F8280000F00400DF
:10510000E8B1A06941192B463A462046FFF7A2FFB5
:10511000D8B1002003462A4601460090204601F0FF
:10512000EDFE064656B900BF502080F31188BFF34C
:105130004F8FBFF36F8F00BF00BFFEE705E094F80D
:10514000280020F0010084F828002046216A8847C2
:10515000F8BD000058000020F0B587B0A0E003982B
:10516000002811DA04AE56B900BF502080F3118830
:10517000BFF34F8FBFF36F8F00BF00BFFEE7D6E9CD
:105180000020B168904700BF03980028E6DB059C2B
:10519000606908B9012000E0002010B9201D00F06E
:1051A00081FA02A800F0DEF8054603980A2875D2B5
:1051B000DFE800F009050739416306083A4200BFFD
:1051C00000BF00BF00BF94F8280040F0010084F841
:1051D00028000498A269811803462A462046FFF752
:1051E00039FFF8B12046216A884794F8280000F07A
:1051F0000400B8B1002000900498A169421800236F
:105200001946204601F07AFE074657B900BF5020E4
:1052100080F31188BFF34F8FBFF36F8F00BF00BFC4
:10522000FEE700BF3BE000BF94F8280020F001003B
:1052300084F8280033E000BF94F8280040F0010013
:1052400084F828000498A061A06908B1012000E05A
:10525000002050B900BF502080F31188BFF34F8F5A
:10526000BFF36F8F00BF00BFFEE7A06941192B4657
:105270002A462046FFF7EEFE11E094F8280000F0E1
:10528000020018B9204600F0B7FA05E094F82800AB
:1052900020F0010084F8280001E0FFE700BF00BF14
:1052A000002203A90448006801F05CF900287FF49B
:1052B00056AF07B0F0BD000060000020F8B505460D
:1052C0000C4600F085FD684600F04CF80646009854
:1052D00020BB44B9B54206D801F052FD31462846FC
:1052E000FFF700FF1CE03CB10E480068006808B9F9
:1052F000012000E000200446A91B22460A4800685D
:1053000000F032FB01F03CFD50B94FF080500749EE
:105310000860BFF34F8FBFF36F8F01E001F030FDE6
:10532000F8BD00005C0000206000002004ED00E0FB
:105330000A490968096809B9012100E0002121B181
:105340004FF0FF31064A116006E004490968C96858
:10535000C868034A416811607047000020000020BF
:105360004C00002070B5044601F072FB054607486A
:105370000068854204D200F00BF80120206001E0B3
:105380000020206001480560284670BD68000020AC
:105390002DE9F84334E025480068C06805682348D3
:1053A0000068C068C468201D00F07CF92046216AAE
:1053B000884794F8280000F0040008B3A069461953
:1053C000AE4207D966602461211D1848006800F0CC
:1053D000A5F915E0002003462A4601460090204624
:1053E00001F08CFD074657B900BF502080F31188AB
:1053F000BFF34F8FBFF36F8F00BF00BFFEE700BF4B
:105400000A480068006808B9012000E00020002870
:10541000C1D00648D0F800800548006803490860FC
:105420000348C0F80080BDE8F88300005800002061
:105430005C0000200E480068401C08B9012000E014
:10544000002050B900BF502080F31188BFF34F8F68
:10545000BFF36F8F00BF00BFFEE700BF502080F397
:105460001188BFF34F8FBFF36F8F00BF00BFFEE700
:105470009000002008B500BF6846FFF7A9FC04466D
:1054800020460099FFF71AFFFFF766FEF4E770B5B4
:10549000044600F069F994F9455010E0606A08B9D3
:1054A000012000E0002038B904F1240001F01CFCC8
:1054B00018B100F087FB00E003E0681E45B2002D44
:1054C000ECDC00BFFF2084F8450000F077F900F025
:1054D0004BF994F9445010E0206908B9012000E02C
:1054E000002048B904F1100001F0FEFB08B100F003
:1054F00069FB681E45B200E001E0002DECDC00BF56
:10550000FF2084F8440000F059F970BD2DE9F04106
:1055100004464FF0000800F05BFC4948006808B9F9
:10552000FFF76AFC474800682040002870D1D4B1DA
:10553000083404F00700B0B104F00700C0F108001F
:10554000044404F0070008B9012000E0002050B92D
:1055500000BF502080F31188BFF34F8FBFF36F8FD0
:1055600000BF00BFFEE7002C52D0374800688442DD
:105570004ED8364E3046056801E02E462D686868E4
:10558000A04202D228680028F7D12D480068854241
:105590003ED0306800F10808286830606868001B59
:1055A000102819D92F1907F0070008B9012000E0C9
:1055B000002050B900BF502080F31188BFF34F8FF7
:1055C000BFF36F8F00BF00BFFEE76868001B786005
:1055D0006C603846FFF70AFD1B4968680968081ABD
:1055E000194908600846006819490968884203D2C9
:1055F0001548006816490860124968680968084338
:1056000068600020286013480068401C1149086049
:1056100001F0B6FB08F0070008B9012000E0002007
:1056200050B900BF502080F31188BFF34F8FBFF3F4
:105630006F8F00BF00BFFEE74046BDE8F08100006D
:10564000780000208C0000207C00002070000020EA
:1056500080000020840000200648006830B1054921
:10566000096801F15000096D491C0160014800689A
:10567000704700001C000020001F4FF08073036083
:10568000001F21F001030360001F054B0360143865
:105690000260001F6FF002030360203870470000B3
:1056A0003554000801460A69D1E901309860D1E912
:1056B000010358605068884201D18868506000201A
:1056C00008611068401E106010687047034B03604B
:1056D000034B0B608023136070470000780E00209E
:1056E000D40E0020034B0360034B0B604FF4807318
:1056F00013607047D41000203011002000F1080121
:1057000041604FF0FF31816000F10801C16001612B
:1057100000210160704700210161704710B5024609
:105720000B685C1C0CB9106907E002F1080000E08E
:105730004068446824689C42FAD944684C604C68CC
:10574000A160886041600A611468641C146010BD27
:1057500042684A6093688B60936859609160086101
:1057600003685B1C0360704700BF502080F3118802
:10577000BFF34F8FBFF36F8F00BF0E480068401C10
:105780000C49086008460068012812D10A480068E0
:10579000C0B208B9012000E0002050B900BF50207D
:1057A00080F31188BFF34F8FBFF36F8F00BF00BF2F
:1057B000FEE770479000002004ED00E00D4800680F
:1057C00050B900BF502080F31188BFF34F8FBFF353
:1057D0006F8F00BF00BFFEE706480068401E054906
:1057E00008600846006820B9002080F3118800BFD7
:1057F00000BF70479000002070B506463546002E69
:1058000044D0083D2C46224960680968084008B128
:10581000012000E0002050B900BF502080F3118823
:10582000BFF34F8FBFF36F8F00BF00BFFEE720684D
:1058300008B9012000E0002050B900BF502080F3DB
:105840001188BFF34F8FBFF36F8F00BF00BFFEE71C
:105850000F49606809680840C0B12068B0B90C49B8
:10586000606809688843606000F0B2FA09496068BE
:1058700009680844074908602046FFF7B7FB064857
:105880000068401C0449086001F07AFA70BD00000D
:105890008C0000207C0000208800002000204FF0B9
:1058A000E02108618861064800684FF47A71B0FB16
:1058B000F1F0401E4FF0E021486107200861704779
:1058C0001800002070B5FAF72BFD0446102C16D3F3
:1058D00004F1E02090F8F05315480078854201DB90
:1058E000012000E0002050B900BF502080F3118853
:1058F000BFF34F8FBFF36F8F00BF00BFFEE70D48B0
:10590000006800F4E0600C490968884201D8012071
:1059100000E0002050B900BF502080F31188BFF391
:105920004F8FBFF36F8F00BF00BFFEE770BD000059
:10593000940000200CED00E09800002002460020BA
:105940000BE0084B53F8303033B9064B43F83010B6
:1059500003EBC0035A6002E0401C0828F1D300BFEB
:10596000704700005C0800202DE9F04105460E4616
:1059700017462C46FFF7F8FE94F94400401C10B976
:10598000002084F8440094F94500401C10B9002020
:1059900084F84500FFF712FFA06B28B93A4631465C
:1059A00004F1240000F030F92046FFF770FDBDE857
:1059B000F081000070B504460025D4B1124800689B
:1059C00008B9012000E0002050B900BF502080F34A
:1059D0001188BFF34F8FBFF36F8F00BF00BFFEE78B
:1059E00000F0F6F900212046FFF774F801F0C8F93D
:1059F00005463DB94FF0805004490860BFF34F8F12
:105A0000BFF36F8F70BD00005400002004ED00E074
:105A10002DE9F04704460F464FF0000954B900BF86
:105A2000502080F31188BFF34F8FBFF36F8F00BFFB
:105A300000BFFEE70FB1012000E0002050B900BF19
:105A4000502080F31188BFF34F8FBFF36F8F00BFDB
:105A500000BFFEE72048006808B9012000E00020F0
:105A600050B900BF502080F31188BFF34F8FBFF3B0
:105A70006F8F00BF00BFFEE700F0AAF91748066865
:105A80002068C5192068B04207D92068A8420BD900
:105A9000B54209D94FF0010906E02068A84201D8B3
:105AA000B54201D94FF001092560B9F1000F03D0CB
:105AB000A81B0021FFF70EF801F062F98046B8F14B
:105AC000000F07D14FF0805005490860BFF34F8F9A
:105AD000BFF36F8FBDE8F087540000203000002036
